:020000040000fa
:080000000001040000000000f3
:020000040000fa
:10000800a2010000a2010000a2010000a20100005c
:10001800a2010000a2010000a2010000a20100004c
:10002800a2010000a2010000a20100009820000027
:10003800a2010000a2010000a2010000a20100002c
:10004800a2010000a2010000a2010000a20100001c
:10005800a2010000a2010000a2010000a20100000c
:10006800a2010000a2010000a2010000a2010000fc
:10007800a2010000a2010000a2010000a2010000ec
:10008800a2010000a2010000a2010000a2010000dc
:10009800a2010000a2010000a2010000a2010000cc
:1000a800a2010000a2010000a2010000a2010000bc
:1000b800a2010000a2010000a2010000a2010000ac
:1000c800a2010000a2010000a2010000a20100009c
:1000d800a2010000a2010000a2010000a20100008c
:1000e800a2010000a2010000a2010000a20100007c
:0800f800a2010000a2010000ba
:020000040000fa
:10010800a2010000a2010000a2010000a20100005b
:10011800a2010000a2010000a2010000a20100004b
:10012800a2010000a2010000a20100009820000026
:10013800a2010000a2010000a2010000a20100002b
:10014800a2010000a2010000a2010000a20100001b
:10015800a2010000a2010000a2010000a20100000b
:10016800a2010000a2010000a2010000a2010000fb
:10017800a2010000a2010000a2010000a2010000eb
:10018800a2010000a2010000a2010000a2010000db
:10019800a2010000a2010000a2010000a2010000cb
:1001a800a2010000a2010000a2010000a2010000bb
:1001b800a2010000a2010000a2010000a2010000ab
:1001c800a2010000a2010000a2010000a20100009b
:1001d800a2010000a2010000a2010000a20100008b
:1001e800a2010000a2010000a2010000a20100007b
:0801f800a2010000a2010000b9
:020000040000fa
:100200000fcb21000e7f22000e01880000000000ad
:10021000000020000000e000020032000001200089
:10022000200288000c00070020322200010020007c
:1002300011000700000020000000e0000200320072
:100240000000020000000000fe220200000000008a
:100250000040da000000fe004440a9000004200035
:100260000000e0000300320000002000a001880030
:100270004440a8000000060091018800800078003a
:100280000000eb0015003700e280400032a0b4000f
:100290009101ba00e280400032a0b4009102ba009d
:1002a000e280400032a0b4000002eb00472bde00e9
:1002b000f507b200602ce10004003a000059eb00a1
:1002c0008301e900fdff3e00040037006128e100e2
:1002d000010032000082eb00040007001101ba00a7
:1002e0000200e000e8ff3a00000006003159ba00c1
:1002f0008301e9000c0032002159ba008301e900b2
:10030000080032000400e00003003a00e2804000f0
:1003100032a0b400f5ff370011d9ba008301e9001b
:10032000faff3a008100e800e180400032a0b4000a
:1003300000000600800a040000000000ec22040017
:10034000000000000040da000000fe00000278001b
:1003500002003700315a78000201e900e00f510035
:08036000fcff3a00000006005a
:020000040000fa
:100368001111000022220000333300004444000031
:100378005555000066660000777700008888000001
:1003880099990000aaaa0000bbbb0000cccc0000d1
:10039800dddd0000eeee0000cecd0000acab0000cd
:1003a8000202000003030000040400000505000029
:1003b8000606000007070000080800000a090000f8
:1003c8001010000010110000121200004944000033
:1003d8004c450000000000005431000000000000ff
:020000040000fa
:1003e8001600fa0030079800410798005207980055
:1003f8006307980074079800050f9800160f980077
:10040800270f98009e0890005e009000c504070022
:1004180000027800140798001e029000e00f5200b6
:10042800510032001e029000c40a9000250798006f
:100438001e029000c40a90005e0290000402e900c7
:1004480004024200848242001e029000750a98004d
:100458005e029000ae0990007e019000ce009000f0
:100468001e009000300407006e019000be0090004e
:100478002e0090008e0e070000027800840278009b
:100488001e029000050a78000e0a9000e00f520044
:10049800030032000e0a90009e029000050a7800c0
:1004a800090f0700d4e280000402e800d4e28800c3
:1004b80024e08000e00f520007003a001e0290007e
:1004c80024e08800d4e28000e10f52000c003a00da
:1004d800560407000a00370004e38000e00f5200ca
:1004e80007003a0024e08000b40a90007e029000e1
:1004f800848f520002003e009e02900025e0880092
:1005080044e380000402e80044e388001e029000ef
:10051800b40a9000f4e28000848f52000300360091
:100528001e029000340a9000f4e288001e02900037
:100538000483e8001e029000340a90006a22b90081
:100548008402780064c0210004824200860078009a
:10055800040078002d0f070014002000040f780015
:10056800e40e0700020037000082eb00040f780059
:100578001e027800e10f52000b003a0004e38000ed
:10058800e00f52000800320024e08000b40a900016
:100598007e029000848f5200030031007022020016
:1005a80000000000000000001e027800040078002f
:1005b8000080fa00000006000c00fa0040079800ce
:1005c800510798000002eb00040f7800c2010700f1
:1005d800e4e28000140798004e029000940278002c
:1005e8005e02900004824200240798004e029000a8
:1005f800940278001e029000848f52000c0036008e
:100608004e029000940278002e029000848f5200cf
:1006180012003600ae0290001e029000848f520035
:100628000e00360014002000040f78000b0037007d
:100638004e029000940278002e029000848f52009f
:1006480004003e00ae0290001e029000848f52000b
:100658000200360014002000040f78004e029000bb
:10066800ae029000050a78001e027800e00f5200e2
:100678000600320024e080000482e80004007800cc
:10068800320f07002e0090000804070098010700a9
:1006980000027800340798003e029000e00f5200f4
:1006a80003003a0070220200000000000000000071
:1006b8000080fa00000006000600fa0020079800f3
:1006c8000002eb00040f78002e029000e00f5200a9
:1006d8000e00320080010700e5e280002e02900043
:1006e800048242001407980024e080000482e80095
:1006f80004007800150f07001e009000eb030700a8
:100708007b01070000027800040f78001e027800c1
:10071800e00f520003003a007022020000000000bf
:10072800000000000080fa00000006000600fa0041
:1007380020079800640e07002e029000e00f520078
:1007480002003a0024e08000010037002e029000e9
:10075800040f78001e027800b40a9000150798006c
:10076800640e07001e029000040078000080fa0062
:10077800000006000800fa00300798000002eb00ad
:10078800040f78003e029000e00f520002003a0089
:1007980024e08000010037003e0290001407980012
:1007a8001e029000b40a9000250798002e029000bf
:1007b800040078000080fa00000006000c00fa002f
:1007c80040079800510798000002eb00040f7800da
:1007d8005e029000e30f5200020036003400200051
:1007e80054079800380e07004e029000e00f5200a0
:1007f80002003a0024e08000010037004e02900019
:10080800140798001e029000b40a9000250798006b
:10081800ae0290005e029000848f52004a003200bf
:10082800de0290002e029000848f52000c003600e9
:1008380024e080009e029000848f52000e00320057
:1008480024e08000b40a90005e029000848f520079
:1008580009003e0014002000040f7800060037004d
:1008680024e080009e029000848f520002003a002b
:1008780014002000040f78001e029000b40a9000b3
:10088800350798001e029000de029000350a980095
:100898001e02900064029000e00f52000400350030
:1008a8005e029000e40212001e02900065029800a9
:1008b8001e029000540390003e0290006a22b90084
:1008c8008402780064c0210004824200840f53002f
:1008d80017003a001e0290000482e8000400780025
:1008e8009a0e07001e029000b40a9000f4e28000fd
:1008f800848f5200030036001e029000340a9000d4
:10090800f4e288001e0290000483e8001e029000b2
:10091800340a90006a22b9008402780064c0210079
:10092800048242008600780004007800370e070031
:100938001e027800e10f520003003a007022020004
:100948000000000000000000ea0d07000080fa0027
:10095800000006000400fa0010079800da0d0700ee
:100968001e029000e00f520002003a0024e08000ce
:10097800010037001e029000040f78001e82e80074
:1009880004007800710e07001e027800240a900007
:10099800e00f5200040032009e0278006c82420090
:1009a80004007800690e07001e82e80084007800c1
:1009b80000c52100150e0700ce0d070024e08000b9
:1009c8009e027800848f520010003a0004e38000f1
:1009d800e00f520004003200702202000000000004
:1009e800000000000f00370085e28000d4e280009c
:1009f800848f520003003a000002eb0024e08800d4
:100a080008003700980107000600370004e380005b
:100a1800e00f520003003200ab0d0700630307002c
:100a2800b40d07000080fa00000006000600fa0076
:100a3800200798000002eb00040f78002e029000b7
:100a4800140798001e029000d402900004c52100eb
:100a5800848f52000b003a001e029000a40a9000f6
:100a680064c42100848f5200060032001e029000e8
:100a7800240a9000e00f520002003a0014002000ff
:100a8800040f78001e027800040078000080fa0045
:100a9800000006000400fa00100798001e029000eb
:100aa800040f78001e027800e00f5200290032007f
:100ab80024e080009e027800848f520025003200d6
:100ac800810d07001e007800d8ff0700000278009b
:100ad800e10f52001e003a001e82e8000400780070
:100ae8001a0e07001e027800b40a9000f4e2800093
:100af800848f5200030036001e027800340a9000ea
:100b0800f4e288001e83e8001e027800340a900090
:100b18006a22b9008402780064c02100048242007d
:100b28008600780004007800b80d07001e027800df
:100b3800b40a900024e08000340a9000848f5200a8
:100b480003003900702202000000000000000000cd
:100b5800680d07000080fa00000006000800fa008f
:100b6800300798000002eb00040f78003e02900066
:100b7800140798000002eb00240798001e0090005c
:100b8800aaff070000027800e10f520028003a008f
:100b980054e38000e00f520020003a001e0290004b
:100ba800b40a900024e08000340a9000848f520038
:100bb8000200390014002000040f78001e02900083
:100bc8000482e80004007800e00d07001e0290008f
:100bd800b40a9000f4e28000848f520003003600cb
:100be8001e029000340a9000f4e288001e02900071
:100bf8000483e8001e029000340a90006a22b900bb
:100c08008402780064c021000482420086007800d3
:100c1800040078007d0d0700050037001e029000d3
:100c28006c0242008400780060c42100770d070040
:100c38001e027800040078000080fa000000060018
:100c48000200fa008003eb000003eb008002eb00d7
:100c58000002eb008001eb00a20f2000a11e28007b
:100c680000a82000defd070000027800040f7800cd
:100c78001e027800e10f52000a003a0015028000b7
:100c8800040220000502720014028800000000001f
:100c98001400200004e388000002eb00e4e288006e
:100ca800cd0c07000080fa00000006000000fa00e2
:100cb8001502800004022000050272001402880058
:100cc800000000000002eb0004e38800e50c0700c8
:100cd8000080fa00000006000000fa0054e38000db
:100ce8000402e80054e388000080fa0000000600cf
:100cf8000400fa000002eb00040f7800f20c070071
:100d080054e380000402e90054e3880054e38000bf
:100d1800e00f520045003a00d4e28000e00f520094
:100d2800420032002600370064e28000340290005e
:100d3800140798001e0290006c024200040078001c
:100d4800820d07001e0290000482e800040078006b
:100d58007e0d07001e029000b40a9000f4e28000a5
:100d6800848f5200030036001e029000340a90005f
:100d7800f4e288001e0290000483e8001e0290003e
:100d8800340a90006a22b9008402780064c0210005
:100d98000482420086007800040078001b0d0700da
:100da8001e029000b40a900024e08000340a9000eb
:100db800848f5200020039001400200024e38800c8
:100dc80034e28000e00f5200d7ff3a0014e38000bd
:100dd800e00f52000d003200090037002f00070015
:100de80000027800e00f52000200320014002000d8
:100df80024e3880014e380000402e90014e3880077
:100e080014e38000e00f5200f4ff3a0024e380006e
:100e1800e10f520005003a0014002000040f78008a
:100e2800702202000000000000000000b10c070062
:100e38001e027800040078000080fa000000060016
:100e48000200fa00a00c0700e4e28000040f78001a
:100e5800a80c07001e027800040078000080fa0041
:100e6800000006000400fa000002eb00040f7800fe
:100e7800e4e28000140798001e0290000400780045
:100e88000080fa00000006000000fa00d4e28000aa
:100e9800040078000080fa00000006000a00fa004a
:100ea8000002eb00040f780054e38000e00f5200ca
:100eb80061003a00e4e280000402e800e4e288000d
:100ec800e4e28000140798001e029000e00f520030
:100ed8000a003a0015e280002507980024e2800005
:100ee80014e288002e02900024e2880034e3800097
:100ef8000402e80034e388002c02070074e580004f
:100f08009e029000848f52003f0039000100370094
:100f18000000000014e2800014027800e00f520084
:100f280003003a000082eb0074e5880036003700c1
:100f380014e28000340290003402900034079800d4
:100f48003e02900094029000450798009e0290008f
:100f58004e029000848f5200030031004e02900030
:100f680074e58800280037003e0290000482e800fb
:100f780004007800f50c07003e029000240a900057
:100f8800e00f5200040032003e0290006c02420062
:100f980004007800ed0c07003e029000b40a9000af
:100fa800f4e28000848f5200030036003e02900075
:100fb800340a9000f4e288003e0290000483e800be
:100fc8003e029000340a90006a22b9008402780038
:100fd80064c0210004824200860078000400780082
:100fe8008a0c07003e029000b40a900024e08000ba
:100ff800340a9000848f5200c5ff39001400200085
:10100800040f7800c3ff370024e08000340a900002
:101018006a22b9008402780064c021000482420078
:1010280014027800e10f5200060036001400200078
:10103800040f78000300370014e380000402e8007e
:1010480014e3880024e38000e00f5200020032001d
:1010580014002000040f78001e02780004007800b5
:101068000080fa00000006000200fa0054e3800045
:10107800e00f5200030032001400200024e388002f
:10108800270037000002eb0024e388000300370044
:10109800f4e280000402e900f4e28800f4e280004f
:1010a8006a22b9008402780064c0210004824200e8
:1010b80014027800e00f5200f5ff3200f4e28000dd
:1010c8006a22b9008402780064c02100048f4200bb
:1010d8001e02780014029000940290001e0278000c
:1010e800150298001e027800940290001e037800f2
:1010f80064024300848f520005003a001e02780003
:1011080014029000940290001e02780015029800c4
:101118001e027800140290003402900024e0880037
:101128000080fa00000006000600fa001007980088
:101138002107980024e080006c02420084007800b7
:101148001e0090004f0c070024e080000482e80095
:10115800040078007d0c07002e029000e10f420089
:1011680006003a0024e080000482e8008400780049
:1011780000c52100250c070005003700e5e28000c6
:101188002e029000048f42001e00780047010700dd
:101198000080fa00000006000800fa001007980016
:1011a800210798003207980024e080002e03900061
:1011b80005002800868272006502980024e08000fd
:1011c8006c024200840078001e0090000f0c07009b
:1011d80024e080000482e800040078005b0c07002b
:1011e8003e029000e10f420006003a0024e0800031
:1011f8000482e8008400780000c52100030c070081
:1012080005003700e5e280003e029000048f4200ae
:101218001e007800250107000080fa000000060083
:101228000600fa00200798002e0290003402900071
:1012380034029000140798001e0290006c024200cd
:1012480004007800410c070054e38000e00f5200ce
:1012580018003a001e0290000482e800040078009a
:101268003a0c07001e029000b40a9000f4e28000d5
:10127800848f5200030036001e029000340a90004a
:10128800f4e288001e0290000483e8001e02900029
:10129800340a90006a22b9008402780064c02100f0
:1012a800048242008600780004007800d70b07000b
:1012b800050037001e0290006c024200840078008e
:1012c80060c42100d10b07001e029000b40a9000f0
:1012d80024e08000340a9000848f52000500360014
:1012e80014002000040f78001400200024e3880074
:1012f800020037000002eb00040f78001e0278009d
:10130800040078000080fa00000006000800fa00d7
:101318002007980031079800be02900004002800ba
:10132800850272002e029000050a78002e029000b5
:1013380034029000140798002e009000030c070058
:101348001e0290000482e80004007800ff0b0700ea
:101358001e029000b40a9000f4e28000848f5200cc
:10136800030036001e029000340a9000f4e2880060
:101378001e0290000483e8001e029000340a9000c8
:101388006a22b9008402780064c021000482420005
:1013980086007800040078009c0b07001e0290006d
:1013a800b40a900024e08000340a9000848f520030
:1013b8000500360014002000040f780014002000f7
:1013c80024e38800020037000002eb00040f7800d5
:1013d8001e027800040078000080fa000000060071
:1013e8000200fa00000f780035e380001e02780042
:1013f800050a7800e5e280001e02780015029800d0
:101408000080fa00000006000800fa002007980093
:10141800310798002c0b0700e4e2800014079800bd
:101428003e02900014027800e10f420003003a00e7
:101438000002eb00040f7800250037002e02900010
:101448009402780034e38000848f52000800320050
:101458002e029000940290001e029000848f520089
:1014680003003e0014002000040f78001800370025
:101478002e029000140290009e0290008482520076
:101488003e02900014027800848f52000e00310052
:101498003e029000940278002e02900014039000ff
:1014a8001e02900004025300848242003e02900013
:1014b800050a78002e009000c9ff07000002eb0023
:1014c800040f78000200370014002000040f780091
:1014d800080b07001e027800040078000080fa005c
:1014e800000006000000fa001400200024e3880031
:1014f8000080fa00000006000200fa00000f7800e1
:1015080001003700000000006500070034e080009b
:10151800e10f5200fbff36007022020000000000bd
:1015280000000000f8ff37000c00fa0010079800d0
:10153800210798003207980043079800540798003d
:101548000002eb00040f78000d0037002e02900017
:101558001e024200944278001e0290001e024200c1
:101568007a024200054a78002e0290001e024200cc
:1015780014427800e04f5200050032001e0fe800c8
:101588001e027800e30f5200f0ff3600010037001a
:10159800000000001e0290008042eb00555a98009f
:1015a8003e029000e30f5200020036003400200093
:1015b800340798001e029000be029000350a980079
:1015c8001e0290000482e80004007800080b07005f
:1015d8001e0290006c02420004007800040b070011
:1015e8001e0290009e029000450298003e02900064
:1015f800e40212001e029000650298001e0290008c
:101608009e029000150a98001e0390006022b80000
:1016180004139800151398001e0290008002eb0036
:10162800251298000080fa00000006000200fa0067
:101638000002eb00040f7800080037001e02780053
:101648006a22b9008402780064c021000482420042
:1016580004007800cd0a07001e0fe8001e0278007b
:10166800e30f5200f5ff3600e0c22100c70a070069
:1016780080c32100c50a070060c42100c30a07000f
:1016880000c52100c10a0700e4c2210014e2880055
:1016980084c3210024e288000080fa0000000600cc
:1016a8000000fa000080fa00000006000200fa00bc
:1016b800000f780024e080009e0278001502980050
:1016c800e4e280009e027800848f52000700310017
:1016d80024e080008482e80024e28000850078000d
:1016e80004007800e70a07000c00370024e08000b7
:1016f8008482e80014e28000850078000400780005
:10170800e00a070074e580009e027800848f52008a
:10171800020031001e02780074e588000080fa009b
:10172800000006000600fa0010079800210798003c
:10173800600220002a0b070000027800040f7800de
:101748001e027800e00f5200140032002e029000b2
:10175800e00f520006003a001e0290000402420008
:10176800040078001e0b0700000278000100370013
:101778002e0290009e027800c40a98001e0278008b
:10178800440a9000e00f520004003a001e0078005e
:10179800410b07000002eb00040f78001e027800de
:1017a800040078000080fa00000006000200fa0039
:1017b80014e2800014027800e00f520003003a009f
:1017c8000082eb0074e588000700370014e280000f
:1017d8003402900034029000040f78001e02780052
:1017e8001402900074e588000080fa0000000600ea
:1017f8000200fa0024e08000e4029000050f78005f
:1018080024e0800025e08000b50a9000e482120000
:10181800650298001e027800040078000080fa0033
:10182800000006000a00fa003007980041079800f7
:10183800250a070024e0800094129000041290000a
:10184800e00f5200e08f5a001b003a0024e08000ad
:1018580015002000251298004e029000e00f52005b
:101868001500320024e080000482e80004007800bb
:10187800b60a07004e029000e10f420006003a0047
:1018880024e080000482e8008400780000c521007c
:101898005e0a070005003700e5e280004e0290006e
:1018a800048f42001e00780080ff070070220200ab
:1018b80000000000000000000e0a0700020a0700ee
:1018c80024e08000041390009413900016079800f9
:1018d800270798001e029000ae029000e00f520009
:1018e800e08f5a000f0032003e029000e00f5200d5
:1018f8000500320026e080006022b800041398003a
:10190800151398000700370026e0800006129000a3
:101918009612900061025200e0825a000413980067
:101928001513980024e080008002eb00251298002f
:10193800f00907001e029000ae0290000400be00ed
:101948000080fa00000006001000fa002007980046
:1019580031079800420798005307980064079800d9
:1019680075079800d809070024e080002412900029
:10197800e20f52003200320020e080000013900095
:10198800901390002e029000be0290000482ea009c
:101998008582ea00860078000703780084037800cf
:1019a80005027800878060000402630005002000bb
:1019b800c022dd00040020000403be00610ab80054
:1019c80004037300858373000610980017109800ad
:1019d80024e0800015002000251298007e02900067
:1019e800e00f52001600320024e080000482e80074
:1019f80004007800550a07007e029000e10f4200bb
:101a080006003a0024e080000482e80084007800a0
:101a180000c52100fd09070006003700e5e2800047
:101a28007e02900004824200140798001e00900075
:101a38001eff0700702202000000000000000000e6
:101a4800ac090700a00907006e029000e00f5200e1
:101a58000500320024e080009412900004129000e7
:101a68006e039000048bbe0024e0800024129000d6
:101a7800e10f520003003a000002eb00040f780067
:101a88001800370020e080000013900090139000a9
:101a98004e029000de0290000482ea008582ea008d
:101aa8008600780007037800840378000502780030
:101ab800878060000402630005002000c022dd006a
:101ac800040020000403be00610ab8000403730088
:101ad80085837300061098001710980014002000e2
:101ae800040f780024e080008002eb0025129800a3
:101af800800907001e027800040078000080fa00c0
:101b0800000006001000fa0030079800420798000d
:101b18005307980061079800740798001400200084
:101b2800040f78003e029000140798006609070029
:101b38007e029000e00f5200050032001e02900065
:101b480094129000041290007e039000048bbe0053
:101b58001e029000a4129000250798001e02900013
:101b680025002000251298006e0290000500200034
:101b78004600200007002000860f5200878f5a0079
:101b88002d003e00046001002a00370003003700e2
:101b98000d003700150037001a0037001e029000ac
:101ba80004139000941390004e029000de029000ff
:101bb80004027300858273001e03900004139800ca
:101bc800151398001c0037001e0290009412900014
:101bd8000412900061024200e0824a001e03900055
:101be8000413980015139800130037001e02900084
:101bf8004e039000de03900006129800171298001a
:101c08000d0037002e029000e20f5200060032004d
:101c18001e0290004e039000de039000061298000a
:101c280017129800040037000002eb00040f780038
:101c380001003700000000002e029000e10f520062
:101c480020003a001e0290000482e8000400780098
:101c5800be0907001e029000b40a9000f4e280005a
:101c6800848f5200030036001e029000340a900050
:101c7800f4e288001e0290000483e8001e0290002f
:101c8800340a90006a22b9008402780064c02100f6
:101c98000482420086007800040078005b0907008f
:101ca8001e029000b40a900024e08000340a9000dc
:101cb800848f5200030036007022020000000000ea
:101cc800000000000b0907001e02780004007800dd
:101cd8000080fa00000006001200fa004007980091
:101ce800520798006307980071079800040f98003e
:101cf80014002000040f78004e029000140798008a
:101d08000002eb00240798001e029000a412900025
:101d1800350798001e029000250020002512980023
:101d28007e029000050020004600200007002000e9
:101d3800860f5200878f5a002d003e000460010074
:101d48002a003700030037000d0037001500370060
:101d58001a0037001e02900004139000941390009c
:101d68005e029000ee029000040273008582730008
:101d78001e03900004139800151398001c003700e8
:101d88001e0290009412900004129000610242001a
:101d9800e0824a001e03900004139800151398006f
:101da800130037001e0290005e039000ee039000bf
:101db80006129800171298000d0037003e02900096
:101dc800e20f5200060032001e0290005e039000ef
:101dd800ee039000061298001712980004003700ce
:101de8000002eb00040f780001003700000000003b
:101df8003e029000e10f52002c003a0054e38000ac
:101e0800e00f520018003a001e0290000482e80019
:101e1800040078004d0907001e029000b40a9000e3
:101e2800f4e28000848f5200030036001e02900006
:101e3800340a9000f4e288001e0290000483e8004f
:101e48001e029000340a90006a22b90084027800c9
:101e580064c02100048242008600780004007800f3
:101e6800ea080700050037001e0290006c024200d5
:101e78008400780060c42100e40807001e02900076
:101e8800b40a900024e08000340a9000848f520045
:101e9800060036000e0a9000e00f520003003200e0
:101ea8000e0a900015002000050a78001e0278002e
:101eb800040078000080fa00000006000a00fa001a
:101ec80030079800410798003e029000040f780000
:101ed8000002eb00140798001e027800a41290007c
:101ee800250798001e02780025002000251298007a
:101ef8001e027800941290000412900061024200c1
:101f0800e0824a001e037800041398001513980015
:101f18002e029000e10f52002a003a0054e380009c
:101f2800e00f520016003a001e82e8000400780014
:101f3800060907001e027800b40a9000f4e2800047
:101f4800848f5200030036001e027800340a900085
:101f5800f4e288001e83e8001e027800340a90002c
:101f68006a22b9008402780064c021000482420019
:101f78008600780004007800a408070005003700f0
:101f88009e0278006c8242008400780060c42100c0
:101f98009e0807001e027800b40a900024e0800022
:101fa800340a9000848f5200060036004e029000da
:101fb800e00f5200030032004e029000150020008e
:101fc800050a78000080fa00000006000600fa0002
:101fd80010079800210798001e029000040f78004f
:101fe800390807001e027800140378001e027800e2
:101ff800f40a90001e0278000412900004aab900a6
:1020080004027800840243001e027800150298003a
:102018001e0278008002eb00650a98001e02780014
:10202800940278001e027800250298001e027800ab
:10203800140378001e027800740a90008402e900f4
:102048001e0278000412900004aab9000402780065
:10205800840243001e027800350298001e027800b0
:102068008082eb00151298001e0278008082eb0037
:10207800251298002e029000e00f52000f003a003f
:102088001e02780044029000e00f52001300320054
:102098009e027800688242000400780060fc070015
:1020a80000027800e10f52000c003a007022020092
:1020b8000000000000000000080037009e027800c1
:1020c8006882420004007800300807009e02780009
:1020d80072824200040078002c08070005080700f7
:1020e80014002000040078000080fa0000000600b8
:1020f8000e00fa004007980051079800424f9800d8
:102108000002eb00140798005e029000e00f5200f6
:1021180003003a000002eb00040f780005003700c6
:10212800ce0290005e02900004aab9000402780072
:10213800040fe800650220001e82420004007800b7
:10214800a708070000027800240798002e029000d4
:10215800e00f5200190032002e0290003407980058
:102168005e029000e00f520004003a00be029000a8
:102178003e029000050a7800050037002e02900004
:1021880065022000848242003e029000050a780021
:102198003e029000ce029000750a98003e02900020
:1021a800de02900005129800110020003e00900009
:1021b80086ff07003e029000140798001e02900058
:1021c800040078000080fa00000006001200fa00ff
:1021d800500798006107980072079800030f98004d
:1021e8000002eb00040f78005e02900014079800cc
:1021f8000100370000000000b30707001e0290002e
:10220800e40a90001e029000740a9000848f520025
:10221800030039000e0a9000e20f52001e003a0037
:102228000e099000ee0090001e009000dc010700ef
:1022380000027800240798001e029000140a9000fb
:10224800e00f52000b0032001e02900072024200a2
:1022580004007800f2fb070000027800e10f52004a
:102268000a003a007022020000000000000000008e
:10227800060037002e029000e00f520003003200e3
:10228800702202000000000000000000990707000b
:1022980014002000450037007e029000e00f520035
:1022a80003003a00930707000002eb003f003700e5
:1022b8001e027800e00f520005003a00660247004f
:1022c8000400780046fc070014002000040f780082
:1022d8008807070080fa07007b0707001e029000a6
:1022e80014129000e10f420003003a001e02900011
:1022f8008002eb00151298001e0290002412900034
:10230800e10f420003003a001e0290008002eb0039
:102318002512980077070700ee024700660247007b
:10232800850078000400780037fc07000002780078
:10233800e00f520019003a001e00900072020700d8
:1023480000027800e00f520010003200fe029000f8
:102358001e029000680242008500780004007800a0
:1023680071fb07001e0090000902070060fa0700d1
:1023780000027800e00f52009eff3a00702202002f
:1023880000000000000000009bff37001e009000c6
:10239800ff01070056fa070097ff37001e0090005c
:1023a800fb01070052fa07000002eb000400780066
:1023b8000080fa00000006000e00fa0030079800be
:1023c8004107980052079800630798003e02900062
:1023d800140798000002eb00240798001e029000e2
:1023e800e40a90001e029000740a9000848f520044
:1023f800030039006e029000e20f520022003a00fa
:102408006e019000ce0090001e009000640107004d
:102418001e02900024129000e10f420012003a00c0
:102428001e029000140a9000e00f520013003200c0
:102438001e029000720242000400780078fb070038
:1024480000027800e00f52000c0032005e0290009b
:10245800e00f5200090032005e02900015002000d3
:10246800050a7800050037001e029000241290002b
:102478008402e8001e029000251298001400200033
:10248800040f7800020037000002eb00040f780008
:102498001e027800040078000080fa0000000600a0
:1024a8000a00fa0030079800410798003e029000a1
:1024b800140798000002eb00240798001e02900001
:1024c800e40a90001e029000740a9000848f520063
:1024d800230031001e029000640a90008402e80084
:1024e8001e029000650a98001e02900024129000b7
:1024f800e10f420012003a001e029000140a9000f8
:10250800e00f5200130032001e02900072024200d7
:102518000400780042fb070000027800e00f520038
:102528000c0032004e029000e00f52000900320009
:102538004e02900015002000050a780005003700bb
:102548001e029000241290008402e8001e029000ef
:102558002512980014002000040f780002003700ac
:102568000002eb00040f78001e02780004007800d7
:102578000080fa00000006001200fa0050079800d8
:102588006107980072079800030f98000002eb009b
:10259800040f78005e0290001407980001003700cd
:1025a80000000000c80607001e029000640a9000a0
:1025b800e00f5200310032001e029000b402900079
:1025c80025079800ee0090001e0090004e010700bd
:1025d8000e0a9000e00f520014003a001e0290000c
:1025e800640a90008402e9001e029000650a9800bf
:1025f8001e02900044029000e00f52001c003200be
:102608001e029000680242000400780004fb0700e4
:1026180000027800e10f520015003a007022020013
:102628000000000000000000110037001e029000aa
:10263800ae029000350298001e029000140a900025
:10264800e00f52000a0032001e029000720242009f
:1026580004007800f2fa070000027800e00f520048
:102668000300320070220200000000000000000099
:10267800a006070014002000450037007e029000e5
:10268800e00f520003003a009a0607000002eb0030
:102698003f0037001e027800e00f520005003a00a4
:1026a80066024700040078004dfb07001400200074
:1026b800040f78008f06070087f9070082060700d5
:1026c8001e02900014129000e10f420003003a002d
:1026d8001e0290008002eb00151298001e02900066
:1026e80024129000e10f420003003a001e029000fd
:1026f8008002eb00251298007e060700ee024700d4
:102708006602470085007800040078003efb070059
:1027180000027800e00f520019003a001e009000f5
:102728005901070000027800e00f52001000320043
:10273800fe0290001e02900072024200850078009e
:102748000400780078fa07001e00900010010700c6
:1027580067f9070000027800e00f520090ff3a0086
:102768007022020000000000000000008dff37000a
:102778001e009000060107005df9070089ff370079
:102788001e0090000201070059f907000002eb0043
:10279800040078000080fa00000006000c00fa002f
:1027a8003007980041079800520798003e029000b1
:1027b800140798000002eb00240798001e029000fe
:1027c800640a9000e00f520026003200ce0090000c
:1027d8001e009000cc0007001e029000640a9000c2
:1027e8008402e9001e029000650a98001e0290000b
:1027f80014129000e10f420012003a001e029000ed
:1028080044029000e00f5200130032001e029000b4
:10281800680242000400780081fa0700000278008c
:10282800e00f52000c0032005e029000e00f5200f0
:10283800090032005e02900015002000050a7800a9
:10284800050037001e029000141290008402e80070
:102858001e0290001512980014002000040f780042
:10286800020037000002eb00040f78001e02780017
:10287800040078000080fa00000006000c00fa004e
:1028880040079800510798004e02900014079800de
:102898000002eb00240798001e029000640a9000d2
:1028a800e00f52000c0032001e029000b4029000ab
:1028b80035079800de0090001e0090009200070087
:1028c8001e029000be0290003502980014002000fd
:1028d800040f7800020037000002eb00040f7800b4
:1028e8001e027800040078000080fa00000006004c
:1028f8000400fa0010079800f30507001e02900074
:10290800e40a9000050f7800fa0507001e02780017
:10291800040078000080fa00000006000600fa00b3
:10292800200798002e029000040f7800e6050700a3
:102938001e027800f40a90001e027800640a9000d3
:102948000482520014079800ea0507001e0290004e
:10295800040078000080fa00000006000400fa0075
:10296800100798001e029000e40a9000050f7800f6
:102978001e027800040078000080fa0000000600bb
:102988000400fa00100798001e029000040f780057
:102998001e007800c00607000080fa00000006004c
:1029a8000800fa00100798002107980032079800dd
:1029b8000002eb00040f78001e0290000412900041
:1029c800e00f5200470032003e029000e00f520034
:1029d8001a003a001e029000841290001e02900015
:1029e8002402900005017800ae00900004007800f1
:1029f80054f607001e029000a40290001e029000e8
:102a080004129000848242001e0290002502980061
:102a18001e029000a40290001e0290001402900072
:102a2800848f52002f0039001e0290009402780013
:102a38001e029000250298002a0037001e0290000e
:102a4800841290001e029000340290000501780064
:102a5800ae009000040078003af607001e029000cd
:102a6800b40290001e029000041290000402ea00d2
:102a7800848242001e029000350298001e029000d7
:102a8800b40290001e02900014027800848f520055
:102a9800080031001e029000940290001e0290006f
:102aa800041290000402ea00848242001e02900090
:102ab800350298003e029000e20f520009003a00e9
:102ac8001e029000640a9000e00f520005003200d8
:102ad8001e029000640a90008402e9001e02900021
:102ae800650a98001e029000640a90008402e800bb
:102af8001e029000650a98001e0278000400780003
:102b08000080fa00000006000400fa00000f7800b8
:102b1800110798001e02780004129000e00f52007e
:102b2800190032001e027800b40290001e027800dc
:102b380004129000848242001e0278003502980038
:102b48001e027800b40290001e0278001402900061
:102b5800848f5200040039001e0278009402780025
:102b68001e027800350298001e0278008412900038
:102b78001e02780034029000050178008400780075
:102b88001e009000eff507000080fa000000060024
:102b98000200fa00000f78004b050700110037000b
:102ba8001e027800140a9000e00f52001200320052
:102bb8009e027800728242000400780098f90700ab
:102bc80000027800e00f52000100320045fa0700c9
:102bd8001e027800241290008402e9001e02780088
:102be800251298001e02780024129000e00f52006f
:102bf800ebff3c0001003700000000001e027800d7
:102c08008082eb00251298003a0507002e05070080
:102c1800110037001e02780044029000e00f5200b5
:102c2800120032009e027800688242000400780098
:102c38007bf9070000027800e00f52000100320023
:102c480028fa07001e027800141290008402e90096
:102c58001e027800151298001e02780014129000c7
:102c6800e00f5200ebff3c000100370000000000bd
:102c78001e0278008082eb00151298001d050700df
:102c88000080fa00000006000400fa00100798000f
:102c98000d0507001e029000640a9000e00f520024
:102ca80003003a0014002000040f780002003700e7
:102cb8000002eb00040f78000e0507001e027800e2
:102cc800040078000080fa00000006000400fa0002
:102cd800100798001e029000640a9000e00f52004e
:102ce80003003a0014002000040f780002003700a7
:102cf8000002eb00040f78001e0278000400780040
:102d08000080fa00000006000400fa00100798008e
:102d1800ed0407001e029000e40a90001e029000d5
:102d2800740a9000848f520003003a0014002000b7
:102d3800040f7800020037000002eb00040f78004f
:102d4800ec0407001e027800040078000080fa00f6
:102d5800000006000400fa00100798001e02900008
:102d6800e40a90001e029000740a9000848f5200ba
:102d780003003a0014002000040f78000200370016
:102d88000002eb00040f78001e02780004007800af
:102d98000080fa00000006000a00fa0020079800e8
:102da80031079800420798002e02900014079800f7
:102db8001502800004022000050272001402880037
:102dc800000000001e009000cfff070000027800fe
:102dd800e00f5200140032004e029000e00f520043
:102de8000b0032001e029000680242008400780046
:102df8004e0090001203070015028000f4fd2f001a
:102e08000482620014028800c4ff2f0030003700db
:102e180015028000f4fd2f0004826200140288006d
:102e28000002eb002a00370015028000f4fd2f0095
:102e38000482620014028800150280000402200047
:102e48000502720014028800000000001e029000b3
:102e5800e40a90001e029000740a9000848f5200c9
:102e6800140031000001eb00be0090001e0090002d
:102e7800cbfe070014002000040f78001e0290000b
:102e8800140a9000e00f52000c0032001e0290005d
:102e98007202420004007800e7030700000278008d
:102ea800e00f520005003200b4ff2f00040f780035
:102eb800020037000002eb00040f780015028000c2
:102ec800f4fd2f0004826200140288001e027800bc
:102ed800040078000080fa00000006000a00fa00ea
:102ee8002007980031079800420798002e029000aa
:102ef80014079800150280000402200005027200e1
:102f080014028800000000001e029000640a90006d
:102f1800e00f520014003a004e029000e00f5200f9
:102f28000b0032001e0290007202420084007800fa
:102f38004e009000c202070015028000f4fd2f0029
:102f48000482620014028800c4ff2f004800370082
:102f580015028000f4fd2f0004826200140288002c
:102f68000002eb004200370015028000f4fd2f003c
:102f78000482620014028800150280000402200006
:102f88000502720014028800000000001e02900072
:102f9800640a9000e00f52002e0032001e029000da
:102fa800b40290001e029000041290008482420035
:102fb8001e029000350298001e029000b402900094
:102fc8001e02900014029000848f52000400390001
:102fd8001e029000940278001e02900035029800ac
:102fe8001e029000640a90008402e9001e0290000c
:102ff800650a98001e029000841290001e0290003c
:103008003402900005017800840078003e009000aa
:10301800ccf4070014002000040f78001e02900072
:1030280044029000e00f52000c0032001e02900093
:1030380068024200040078007f030700000278005d
:10304800e00f520005003200b4ff2f00040f780093
:10305800020037000002eb00040f78001502800020
:10306800f4fd2f0004826200140288001e0278001a
:10307800040078000080fa00000006000800fa004a
:103088001007980021079800320798001e02900048
:10309800040f78001e027800e40a90001e027800ef
:1030a800740a9000848f5200140031000001eb0074
:1030b800ae0090001e00780039fe07003e02900026
:1030c800e00f52000d003a001e027800140a90002a
:1030d800e00f5200090032009e027800728242001e
:1030e800040078005403070000027800e00f520043
:1030f8000200320014002000010037003e02900058
:10310800040078000080fa00000006000a00fa00b7
:103118002007980031079800420798002e02900077
:10312800140798001e029000640a9000e00f5200f5
:10313800330032001e029000b40290001e0290007c
:1031480004129000848242001e029000350298000a
:103158001e029000b40290001e029000140290001b
:10316800848f5200040039001e02900094027800f7
:103178001e029000350298001e029000640a90001a
:103188008402e9001e029000650a98001e02900061
:10319800841290001e02900034029000050178000d
:1031a800840078003e00900066f407004e0290000c
:1031b80014027800e00f52000e003a001e02900040
:1031c80044029000e00f52000a0032001e029000f4
:1031d8006802420004007800170307000002780024
:1031e800e00f5200030032004e029000150020004c
:1031f800050a780014002000040f78000200370048
:103208000002eb00040f78001e027800040078002a
:103218000080fa00000006000200fa00c00020004a
:103228006f04070000027800040f78001e0278007f
:10323800e00f5200060032001e0278008002eb0008
:10324800050a78001e82e80004007800cf03070012
:103258001e027800040078000080fa0000000600d2
:103268001200fa005007980061079800720798004a
:10327800030f98005e029000140798000002eb000c
:103288002407980094f607001e0290009402780024
:1032980035079800ee0090005e009000ea000700f5
:1032a800be0290006e029000850272007e029000bd
:1032b800848262007e029000848f52000d003a00e2
:1032c800be0290006e029000048f72001e029000f1
:1032d800940278007e0290000482ea0084826200f0
:1032e8001e029000050a78000002eb00040f980007
:1032f800110037000e0a9000e00f52000c00320057
:10330800fe02900004502000850272001e02900008
:103318000482e8000e099000850078000400780017
:103328009df707000002eb00040f78000200370049
:103338001e029000140f78006df607000002780056
:10334800440798000e0a9000e00f52002100320056
:103358004e029000e00f520003003a007022020073
:10336800000000000000000021f9070000027800ba
:10337800040f7800042020001e026200e00f5200b3
:1033880012003a00500307001e029000140f780044
:103398007e0290009e0262007e029000848f52009e
:1033a80007003a001e029000940278007e02900006
:1033b8000482ea00848262001e029000050a7800f6
:1033c8004c0307001400200024079800f40f200085
:1033d8001e0f62001e027800040078000080fa00c8
:1033e800000006001800fa0070079800010f980006
:1033f800120f9800230f9800340f98007e02900057
:10340800240798000002eb00140798000002eb0064
:103418003407980030f607002e02900094027800d6
:10342800450798002e0990008e0890004e009000e5
:103438001601070000027800540798005e02900009
:10344800e00f52000f0032004e029000040f780087
:103458000002eb00340f98001e0a9000e00f5200a3
:10346800270032002e029000940278000e0a900085
:103478000482ea00848262002e029000050a780025
:103488001f0037003e0a9000e00f520003003a0088
:10349800ce029000050f7800190037001e0a900030
:1034a800e00f5200040032009e0290000410200039
:1034b80005027200140798002e0a9000e00f5200cf
:1034c800040032009e0290000440200005027200b1
:1034d800140798008e0a90001e0290008502720060
:1034e8002e0290000482e8003e09900085007800d2
:1034f8000400780028f707000002eb00040f7800aa
:10350800fbf5070000027800640798003e0a900067
:10351800e00f5200260032006e029000e00f5200c9
:1035280003003a00702202000000000000000000c2
:10353800aff8070000027800040f7800042020008c
:103548001e026200e00f520017003a00de02070078
:103558002e029000140f78002e0990008e0890001b
:103568001e007800c900070000027800e00f520032
:103578000a0032001e0a9000e00f520007003200d5
:103588002e029000940278000e0a90000482ea004d
:10359800848262002e029000050a7800d502070096
:1035a8000002eb0034079800f40f20001e0f6200a1
:1035b8001e027800040078000080fa00000006006f
:1035c8000800fa0020079800310798002e029000a2
:1035d800040f7800bc0207001e02780094027800ed
:1035e800150798001e027800940278003e029000a9
:1035f8000482ea00848262001e027800050a7800cc
:10360800bc0207001e029000040078000080fa0047
:10361800000006000800fa00300798003e029000fb
:10362800040f78000002eb00140798001e027800cf
:1036380094027800250798002e0290000400780074
:103648000080fa00000006001600fa00100f98002b
:10365800210f98000002eb00140798001e0a900042
:10366800340798000002eb00240798003e029000ff
:103678000482e800440798004e0290006402420069
:103688005407980094f507004e029000b402900089
:10369800050f78003e029000940278002e0a9000f0
:1036a800850272003e029000050a78003c0037004f
:1036b8001e02780094029000650798001e027800a8
:1036c80094027800750798000002eb002407980020
:1036d800fe02900004f02f0004826200040f98009c
:1036e800fe029000f40f2000048262007407980024
:1036f8008e0a90000440200004826200e00f52000d
:1037080009003a003e029000940278007e02900080
:1037180004826200e00f52000c0032001400200006
:1037280024079800090037003e02900094027800b0
:103738007e029000848262007e029000848f520094
:1037480002003a0014002000240798002e0290007e
:10375800e00f5200100032008e0a90000410200082
:1037680004826200e00f5200040032009e029000c2
:103778007e02900005027200140798003e02900035
:10378800940278000420200005027200840078006a
:103798001e007800ddf607006e029000040f780026
:1037a8005e0290009e027800848f5200c0ff3a00ab
:1037b8003e029000940278001e0290000482ea0003
:1037c800848262003e029000050a780048f50700ee
:1037d8003e02900014027800040078000080fa008d
:1037e800000006000600fa00200798002e0290004c
:1037f800040f78001e82e8001407980036f50700c9
:10380800050037001e0290003402900001202000bd
:1038180004007800bdf607001e029000140278002c
:10382800e00f5200f7ff3a001e0078001a03070065
:103838002ff507000080fa00000006000600fa00d5
:10384800000f780012079800230798001e029000c6
:10385800840078001e0078007bff07000080fa00d3
:10386800000006000600fa00000f78001207980012
:10387800230798001e029000840078001e0078003c
:103888004fff07000080fa00000006000800fa0059
:103898001007980021079800320798000002eb00f3
:1038a800040f78003e029000e00f520008003a0032
:1038b8009e0290002e02900004826200e00f5200e7
:1038c8000b00320014002000040f780008003700b5
:1038d8009e0290002e029000848262002e029000c8
:1038e800848f520002003a0014002000040f780070
:1038f8001e027800040078000080fa00000006002c
:103908000a00fa002007980031079800420798003b
:10391800c0012000b20207000002780014079800d6
:103928001e029000e00f52003f00320014e58000b4
:10393800e00f520003003a001e02900014e58800d0
:10394800220107003e029000e10f520002003600fb
:1039580014002000340798001e0290008002eb003b
:10396800550a98001e029000be029000350a980081
:103978001e029000ce029000450a98001e02900098
:10398800ae029000050a78001e0290000482e8004a
:1039980004007800160207001e0290006c02420024
:1039a80004007800120207001e0290009e02900098
:1039b800450298001e0290009e029000150a980089
:1039c8003e029000e20212001e029000650298007a
:1039d8001e029000b40a900024e58000848f5200f3
:1039e800030036001e029000340a900024e5880087
:1039f8001e0290000483e8001e029000340a900022
:103a08006a22b90084027800c4c6210004824200f8
:103a18008600780004007800fc01070014002000ec
:103a2800040f7800020037000082eb00040f7800d2
:103a38001e027800040078000080fa0000000600ea
:103a48000600fa00100798002107980035e5800065
:103a58001e029000048f420014e580000482e800f2
:103a6800040078003902070014e580009e027800ff
:103a78001502980034e580009e027800848f520079
:103a88000700310014e580008482e800b4e4800077
:103a98008500780004007800fa0107000600370066
:103aa80014e580008482e800a4e4800085007800a2
:103ab80004007800f30107002e029000e00f520086
:103ac8000500320014e580006c0242008400780092
:103ad8002e009000eb0107000080fa0000000600ad
:103ae8000200fa00250037001502800004022000b9
:103af800050272001402880000000000f4e480004f
:103b080034029000040f78009e0278006c82420014
:103b1800040078000d02070015028000f4fd2f0054
:103b280004826200140288001e82e8000400780003
:103b3800060207001e027800b40a900024e58000ff
:103b4800848f5200030036001e027800340a900069
:103b580024e588001e83e8001e027800340a9000dd
:103b68006a22b90084027800c4c621000482420097
:103b78008600780004007800a4010700c4e48000ef
:103b8800e00f5200d8ff3a000080fa00000006005b
:103b98000400fa00aaf407000002780045e5800056
:103ba8000502520054e588004900370034e58000da
:103bb8000402e80034e5880054e580000402e900c6
:103bc80054e5880034e58000e00f520039003a00df
:103bd800a4e48000040f7800b4e48000a4e4880022
:103be8001e027800b4e4880033003700a4e48000a3
:103bf8003402900034029000140798001e029000ce
:103c08009402900034e58000848f52002f003e001b
:103c180015028000040220000502720014028800c8
:103c2800000000001e0290000482e80004007800f2
:103c3800c60107001e029000240a9000e00f5200ff
:103c4800040032001e0290006c024200040078005a
:103c5800be01070015028000f4fd2f0004826200f7
:103c6800140288001e029000b40a900024e5800027
:103c7800848f5200030036001e029000340a900020
:103c880024e588001e0290000483e8001e029000cc
:103c9800340a90006a22b90084027800c4c6210060
:103ca800048242008600780004007800570107006b
:103cb8000100370000000000a4e48000140278002e
:103cc800e00f5200c9ff3a00010037000000000071
:103cd80054e58000e00f5200b4ff3a0034e580005c
:103ce80044e588000080fa00000006000200fa009f
:103cf8007bff0700a6ff07000600370024e58000c9
:103d0800e00f52002e00320024e580000402e90092
:103d180024e5880024e580006a22b900840278003e
:103d2800c4c621000482420014027800e00f520049
:103d3800f2ff320024e580006a22b900840278008c
:103d4800c4c62100048f42001e02780014029000ad
:103d5800940290001e027800150298001e02780056
:103d6800940290001e03780064024300848f52007e
:103d780005003a001e027800140290009402900098
:103d88001e027800150298001e02780014029000a6
:103d98003402900014e5880014e5800014037800cc
:103da80014e58000c40a900014e5800085007800be
:103db8000400780006000100000000000100370040
:103dc800000000000080fa00000006000200fa006f
:103dd8000002eb00040f7800080037001e0278008c
:103de8006a22b90084027800c4c621000482420015
:103df80004007800e50007001e0fe8001e027800a6
:103e0800e10f5200f5ff360000c82100df0007006f
:103e1800a0c82100dd00070080c92100db000700e1
:103e280004c82100a4e48800a4c82100b4e48800e0
:103e38000080fa00000006000600fa00200798003b
:103e48002e0290003402900034029000140798006b
:103e58001e0290006c024200040078003b0107003b
:103e68001e0290006c0242008400780080c9210084
:103e7800e60007001e029000b40a900014e58000d6
:103e8800340a9000848f5200030039001400200087
:103e9800040f7800020037000002eb00040f7800de
:103ea8001e027800040078000080fa000000060076
:103eb8004000fa00501f9800611f9800721f980078
:103ec80064024700451b28001a000900351a7800cb
:103ed8006e1a9000140798005e1a90009e029000d7
:103ee800050a78005e1a90000482e800541f9800c2
:103ef8005e1a90008002eb00050a78005e1a9000b6
:103f08000482e800541f98005e1a90008002eb00bb
:103f1800050a78005e1a90000482e800541f980091
:103f2800fe1a90005e1a9000050a78005e1a90004a
:103f38000482e800541f98000002eb00040f780088
:103f48000a0037001e0278000402420004024700fb
:103f5800a40290005e1a9000050a78005e1a90008c
:103f68000482e800541f98001e0fe8001e02780023
:103f7800fa0f5200f3ff3600250280005e1a900007
:103f8800050a78005e1a90000482e800541f980021
:103f980044032000144278008482fb005e1a9000db
:103fa800050a78005e1a90000482e800541f980001
:103fb8005e1a90008002eb00050a78005e1a9000f5
:103fc8000482e800541f98005e1a900004007800ec
:103fd8000080fa00000006000000fa002400070034
:103fe80020e08000900778004f00780060e58800a6
:103ff8003400f9004400f9004000f9003e00f900df
:104008003c00f9003a00f9003800f9002c00f900ea
:104018002a00f9002800f9002600f9002400f90018
:104028002200f9003200f9003600f9004f07780045
:104038004f06be004f05be004f04be004f03be0032
:104048004f02be004f01be004f00be004200f90003
:104058000000060014002000040078000080fa0028
:10406800000006000000fa000080fa0000000600c8
:104078000400fa0044c3200005002000048fbe009d
:104088000002eb00240888000002eb000408880006
:104098001e02780014088800a404800004c0a00050
:1040a80004d0a10004e0a100a40488008460a90051
:1040b8008c60a8000481a80004a1a90005e1a8005b
:1040c8000080fa00000006000000fa0015028000d7
:1040d800040220000502720014028800000000009b
:1040e80064e580000402e80064e588000080fa00c6
:1040f800000006000000fa0064e580000402e90000
:1041080064e5880064e58000e00f520004003a008e
:1041180015028000f4fd2f0004826200140288005a
:104128000080fa00000006003600f800809fbe00fc
:10413800829fbe00849fbe00869fbe003400f800a8
:1041480000002000a00188000000fa008460a90097
:1041580052f3070000027800e00f5200030032001b
:104168007022020000000000000000000080fa0039
:104178003400f9004f03be004f02be004f01be00dd
:104188004f00be003600f900004006000200fa00a9
:10419800000f78009e027800648242008402780052
:1041a8001e027800150298001e0278008082eb003b
:1041b800250298009e0278006482420084027800fa
:1041c8001e027800350298009e0278006482420040
:1041d800840278001e027800450298001e027800ca
:1041e8008002eb00050a78000080fa000000060053
:1041f8000200fa00000f78001e0278008002eb002f
:10420800450298000080fa00000006000600fa0047
:1042180010079800210798001e0290009402900051
:10422800050f78002e0290009e0278001502980073
:104238001e027800a40290002e0290002502980029
:104248001e02780024029000ae0290001502980029
:104258001e027800ae029000250298002e029000ff
:104268009e029000450298001e02900014027800f9
:104278008402e8001e029000050a78000080fa0017
:10428800000006000800fa0020079800310798008f
:104298003e02900094027800150798001e029000d4
:1042a800e10f420004003a002e029000c402900080
:1042b800050f78000d0037002e02900064024200be
:1042c800040f7800030037001e0278009402900063
:1042d800050f78001e0278001402900094027800fe
:1042e8001e029000848f5200f7ff36001e027800ed
:1042f800940290003e029000150298003e02900041
:1043080014029000be029000250298003e02900020
:104318009e027800250298001e027800be029000d6
:10432800150298003e029000ae02900045029800e7
:104338002e029000140278008402e8002e029000f9
:10434800050a78000080fa00000006000400fa0060
:10435800100798001e02900044029000040f780095
:104368001e029000140290009e029000a502900088
:10437800250298001e029000240290009e029000e0
:1043880095029000150298001e0278009402900091
:104398001e029000848f520004003a001e02900012
:1043a800a40290001e027800150298001e029000d8
:1043b8008002eb00450298001e0278001402780083
:1043c8008402e9001e027800050a78001e027800bf
:1043d80014027800040078000080fa00000006004b
:1043e8000400fa00100798000002eb00040f7800a0
:1043f8001e0290006102620004427800e04f520001
:10440800050032009e029000e4ff2f000482620043
:104418000482e800140798002ff2070014e08000d7
:10442800e00f520004003a0025802000e4ff2f002e
:104438000482620014e0880005e080001e029000fb
:1044480084824200d43f2100848f52000d003e0038
:1044580005e080001e0290008482420004e0800093
:10446800848f52000700360015e0800004e08000c9
:10447800048f420005e080001e0290000482420082
:1044880004e088001af207001e0278000400780091
:104498000080fa00000006000200fa00000f780011
:1044a8000080fa00000006000000fa000002eb009d
:1044b80004e088000080fa00000006000000fa000e
:1044c80004e08000e53f21000482520004007800e7
:1044d8000080fa00000006004200f800801f780003
:1044e8000002200010028800811f7800829fbe0011
:1044f800849fbe00869fbe00889fbe008a9fbe0024
:104508008c9fbe008e1f78003600f8003200f8003d
:104518002200f8002400f8002600f8002800f8001f
:104528002a00f8002c00f8003800f8003a00f800db
:104538003c00f8003e00f8004000f8004400f80095
:104548003400f80060e58000801f780020e08000db
:104558000f087800380802000000000020e0800002
:10456800900778004f00780060e588003400f90073
:104578004400f9004000f9003e00f9003c00f90051
:104588003a00f9003800f9002c00f9002a00f90077
:104598002800f9002600f9002400f9002200f9009b
:1045a8003200f9003600f9004f0778004f06be00c8
:1045b8004f05be004f04be004f03be004f02be00b1
:1045c8004f01be004f00be004200f9000000060087
:1045d8000200fa00000f7800e2a2a90020032000e0
:1045e80035f00700e2a2a8002003200032f00700ff
:1045f800f9ff37000000fa000002eb00f41688000b
:104608000002eb0004178800e2a2a800e2a2a900b9
:104618008003eb000003eb008002eb001400200095
:104628008001eb00820c2000011f2800c02e220010
:0c4638006bef070082f10700ffff370066
:020000040000fa
:104644006c1c000040000000000000000008000096
:104654000414000000000000ac1c00000200000074
:1046640002000000ef000000041c000068000000cd
:1046740000000000ae1c0000020000000200000068
:08468400ffff00000000000030
:020000040000fa
:0200000401f009
:04000000e0b9000063
:020000040000fa
:0200000401f009
:04000400ff7f00007a
:020000040000fa
:0200000401f009
:04000800efff000006
:020000040000fa
:0200000401f009
:04000c00ffff0000f2
:020000040000fa
:0200000401f009
:04001000ffff0000ee
:020000040000fa
:0200000401f009
:04001400ffff0000ea
:020000040000fa
:0200000401f009
:04001800ffff0000e6
:00000001FF
